:1000000000800010C9460000F9460000FB460000D1
:10001000FD460000FF460000014700000000000010
:100020000000000000000000000000006538000033
:100030000547000000000000CF380000053900002F
:100040000B4700000B4700000B4700000B47000068
:100050000B4700000B4700000B4700000B47000058
:100060000B4700000B4700000B4700000B47000048
:100070000B4700000B4700000B4700000B47000038
:100080000B4700000B4700000B4700000B47000028
:100090000B4700000B4700000B4700000B47000018
:1000A0000B4700000B4700000B4700000B47000008
:1000B0000B4700000B4700000B4700000B470000F8
:1000C0000B4700000B4700000B47000010B5054C24
:1000D000237833B9044B13B10448AFF300800123F4
:1000E000237010BDC80100100000000098700000CF
:1000F000084B10B51BB108480849AFF30080084809
:10010000036803B910BD074B002BFBD0BDE81040BE
:10011000184700BF0000000098700000CC010010DC
:10012000C801001000000000154B002B08BF134B46
:100130009D46A3F5803A00218B460F461348144A8A
:10014000121A04F0F2FD0F4B002B00D098470E4B13
:10015000002B00D098470020002104000D000D481E
:10016000002802D00C4804F0FCFA04F043FD200003
:10017000290004F08CFA04F001FB00BF0000080025
:10018000008000100000000009370000C8010010C6
:100190000C10001063470000794A00000146014836
:1001A00005F062B9345E000073B506460D4614468C
:1001B000009331462A462346024805F055F902B01D
:1001C00070BD00BF3E5E000000B58DB0684600F017
:1001D000EDF8684600F0FCF820B94FF4FA7003F02F
:1001E00010FBF6E7054B0993684600F0EDF8002890
:1001F000EFD04FF4FA7003F004FBF5E79D01000027
:1002000000B58FB0684600F01DFA684600F02AFA83
:1002100020B94FF4FA7003F0F4FAF6E7054B0893AF
:10022000684600F01DFA0028EFD04FF4FA7003F092
:10023000E8FAF5E7A901000030B50024A9B04FF4B1
:1002400080650F49224623460095019402A803F0D9
:1002500095FA0095019415A80A492246234603F011
:100260008DFA094B5A6911685A68114201D01B690D
:1002700000E0DB681A604FF4FA7003F0C2FAF0E7AE
:10028000C901000001020000E401001010B5064C95
:1002900000212046182204F048FD2046BDE8104009
:1002A000024903F036BC00BFE401001032C009204F
:1002B00000234FF0FF328360C360C36243628362F6
:1002C00080F82130C26180F820307047704730B527
:1002D000C5699DF80C40013508D1032A06D1012BD0
:1002E00004D1012C02D1C161204630BD002030BDB7
:1002F00010B5C469A14208D1032A06D1022B04D14A
:10030000012380F82030184610BD002010BD13B521
:1003100004460822684604F0FDFC0198009B10F09A
:10032000010F4FEA600018BF2258204418BFD3586D
:10033000984702B010BD0000C368F7B51F6B9B6DF6
:10034000A7F10802012A04461B6802D9C3F3094732
:100350001BE0A7F109035D425D4143191E7C023594
:1003600005442A7C042E08BF0326392303FB0623F9
:100370000D4AD05C10B1636A03B19847287C00B97C
:100380001EB1A36A0BB131469847A16849B1E26832
:100390003AB1002301930097606804F1100301F063
:1003A00037F803B0F0BD00BF185F0000054B10B573
:1003B0000360044600F018FC60602046FFF778FFF9
:1003C000204610BD705E000090F8210070470000CC
:1003D0002DE9F04790F8215088B00446002D40F0F8
:1003E0008A802E46F1B2606800F077FC0146A0607A
:1003F00000287BD06068224601F0E7FA074618B172
:100400002046FFF755FF76E094F82080B8F1000F02
:100410006CD00090217FA0680322022300F07FFAB5
:10042000E0600028ECD0A2683548B2F80011B2F8BC
:10043000FE308DE80600E26932490292782205F02A
:1004400013F8237F3C267343A068383318442E49A1
:1004500005F0F5F86568D4F8089028464946D4F8C0
:100460001CA000F006FD431C1DD0E4B15FFA8AF227
:10047000564309EB060A05EB80035046134403F587
:100480000153012183F82910204BCAF82040243061
:1004900004A908220493059704F03CFC1C4BCAF8FD
:1004A0001C70CAF83430E5686CB11A4B0026EC6356
:1004B00005F1400006A908220693079604F02AFCDD
:1004C000134BAE632B65E2686068936DA1681B688F
:1004D0004546C3F3094300930023019304F110033D
:1004E00000F096FF012384F8213004E00136052E48
:1004F0007FF478AF84E7284608B0BDE8F08700BFF6
:10050000805E0000CF5E00000F5F0000B1020000BF
:100510000F0300003903000000234FF0FF32836017
:10052000C360036243628362C36203634363037510
:1005300043758261037743778377C377704770474A
:1005400010B5846901340AD1032A08D1012B06D1E0
:100550009DF80820022A02D18161184610BD0020B2
:1005600010BD10B58469A14207D1032A05D1022B21
:1005700003D101234375184610BD002010BD13B5EB
:1005800004460822684604F0C5FB0198009B10F061
:10059000010F4FEA600018BF2258204418BFD358FB
:1005A000984702B010BDC36873B59B6D066A1D689D
:1005B0000446C5F309454EB1007C94F9111000F0D2
:1005C000070094F9122094F91330B047636A33B1ED
:1005D000207C227F00F00700824200D09847A36A67
:1005E00033B1607C94F91D20824201D040B298471B
:1005F000E36A33B1A07C94F91E20824201D040B25C
:100600009847236B33B1E07C94F91F20824201D0DC
:1006100040B29847237CA16803F007032377637CEB
:100620006377A37CA377E37CE37741B10023019355
:1006300000956068E26804F1100300F0E9FE02B082
:1006400070BD0000054B10B50360044600F0CCFA05
:1006500060602046FFF760FF204610BD98600000F4
:10066000007D70472DE9F047057D88B00446002DD8
:1006700040F089802E46F1B2606800F02EFB014602
:10068000A06000287AD06068224601F09EF90746F3
:1006900018B12046FFF740FF75E094F81580B8F1D7
:1006A000000F6BD00090217EA0680322022300F08F
:1006B00036F9E0600028ECD0A2683548B2F80011A5
:1006C000B2F8FE308DE80600A26932490292432258
:1006D00004F0CAFE237E3C267343A06838331844D6
:1006E0002D4904F0ACFF6568D4F8089028464946C7
:1006F000D4F818A000F0BDFB431C1DD0E4B15FFA94
:100700008AF2564309EB060A05EB80035046134470
:1007100003F50153012183F82910204BCAF820402A
:10072000243004A908220493059704F0F3FA1C4B23
:10073000CAF81C70CAF83430E5686CB1194B002651
:10074000EC6305F1400006A908220693079604F021
:10075000E1FA134BAE632B65E2686068936DA168A4
:100760001B684546C3F3094300930023019304F13A
:10077000100300F04DFE0123237504E00136052E21
:100780007FF479AF85E7284608B0BDE8F08700BF61
:10079000FC5F000048600000856000001905000053
:1007A0007F050000A70500002DE9F843044600235B
:1007B000082280F8083180F8FC3080F8FD30A0F87D
:1007C000FE30A0F8003180F8093180F80731C0F818
:1007D000F82080F8033180F8043180F8053180F882
:1007E000063100F10C0500F1FC082F46281F0021FE
:1007F0003C2204F09AFA002305F8043C05F10C09A8
:10080000002647F8046F05F12C00074904F017FF94
:100810004F45F5D13C354545E7D184F8096166601F
:100820002660BDE8F88300BFA860000070B50446EC
:1008300000F11C0500F58676284600213C3503F0C2
:100840006BFEB542F8D12046FFF7AEFF204670BDE3
:10085000032907D83C23594343181B7A23B1083195
:10086000084470470020704718467047032930B588
:100870000DD83C2404FB01010D7A45B9CB729DF8DB
:100880000C3001208A720B734D72087230BD00204B
:1008900030BD032970B5054601D9002070BD3C2448
:1008A00004FB0104207A0028F7D0637A022BF4D8E5
:1008B0000133637223693BB1636923B1A369002BE0
:1008C000EBD1022300E00123C1EB01110B440433FF
:1008D00045F8232070BDF8B504460F4616461D4660
:1008E000FFF762FF84F8FC7084F8FD6084F806511D
:1008F000F8BD10B504461C3003F013FE04F1580097
:1009000003F00FFE04F1940003F00BFE04F1D0009D
:1009100003F007FE2046BDE81040FFF745BF70B565
:1009200003299DF8105015D83C24614301F10C04B3
:1009300018310444014454F8040F90F8246096429E
:1009400006D190F826609E4202D12DB1013DEDB254
:100950008C42F0D1002070BD70BD032908D8022A56
:1009600006D8C1EB01110A44043250F82200704746
:10097000002070472DE9F7430191019B8046002B31
:100980003CD00023019CA2680192A268A360019A56
:100990002346002AF6D18CB3D4F8089023695BB3C0
:1009A000256923681B0F02D02668360F06E06368AE
:1009B0001BB163686A6B9B1A2B631026284621467D
:1009C00001F041FB95F824306BB108F50557002183
:1009D000386902F0D5F8042303704460C6720146FA
:1009E000386902F0EFF82846314601F005FB6868E7
:1009F0000121002201F0B8FF4C46CCE703B0BDE86E
:100A0000F08300002DE9F7430446254601F038FB4A
:100A1000674B04F5D85645F8C83B083605F1100772
:100A200000211422384604F080F928460123EF60A3
:100A3000002140F8083F01F079FF686010B95D4877
:100A400003F012F805F13800002103F065FD0F23D3
:100A500085F8253000236B657035B542DED104F58D
:100A6000D95504F5015608352436284605F586750E
:100A7000FFF7DCFEB542F8D104F5025808F108088A
:100A8000404604F5035701F075F83846002504F593
:100A9000055601F06FF84FF4406304F5045006F179
:100AA00020098DE8280044492B462246043002F0F4
:100AB00065FE48462946382204F037F9C6F8049105
:100AC00006F15809AC222946484604F02EF906F5ED
:100AD0008273F3610A23736110232946B361C6F858
:100AE000089106F1140002F02DF842F25013E05084
:100AF00004F509500C3002F023FE04F509502030B3
:100B000002F01EFE41F60C33E55041F61033E5507D
:100B100041F61433E55041F61833E55041F61C33E5
:100B2000E55004F5D9531D6041F6243304F5015016
:100B300004F5015104F50252A4F8C4502330E554E1
:100B40003C31013201354FF486736B4303F5D853C2
:100B500000261E3300F8016FE55404EB850303F50E
:100B6000015E01F8016F02F8016F8EF8256003F550
:100B7000015E8EF82660052D03F5015E03F5015335
:100B80008EF8276083F82860DCD14046214600F0CB
:100B9000FFFF42F2F8033846E654214600F0F8FF22
:100BA00042F2F9032046E65403B0BDE8F08300BFEB
:100BB000B8600000C8600000AD19000010B5044620
:100BC000016001F509500C304FF0FF3102F0D0FD0B
:100BD000204610BD10B50446006800F509500C30E1
:100BE00002F0C9FD204610BD38B5084C236853B942
:100BF00042F2144003F08AFD0546FFF703FF284642
:100C0000256001F067FA206838BD00BFFC010010C4
:100C100041F610332DE9F041C65804460D463346DF
:100C200023B1AB420DD01E465B6DF9E741F614339C
:100C3000E6583346002B4ED0AB4202D01E465B6DC9
:100C4000F8E76F6D41F6103830463946DFB101F0F4
:100C500010FA54F808309D4208D16B6D2046996D0A
:100C600001F0D2FA6B6D44F8083031E041F61436E9
:100C7000A3599D422CD16B6D2046996D01F0D0FA9D
:100C80006B6DA35124E001F0F4F954F808309D4253
:100C900004D12046394601F0B7FA09E041F614388C
:100CA00054F808309D4206D12046394601F0B8FA82
:100CB0006B6D44F8083095F82430022B05D0032BD7
:100CC00006D104F5D954266002E041F61C33E65003
:100CD0000F2385F82530BDE8F08104290DD843188D
:100CE00003F5015320331B794BB14FF4867303FB9B
:100CF000010000F5D95008307047002070471846B1
:100D0000704700002DE9F04186B01F460D4616469B
:100D1000044601F0CBFA8046204601F0DDFA04904B
:100D2000204601F0D9FA002105902022049803F012
:100D3000FCFF00210598202203F0F7FF002170221C
:100D40004A43A318E8335B790F2B0ED19DF830305E
:100D5000C8321444019304AB0293009720464146E5
:100D60002A46334601F0BAF809E001313C29E6D1C0
:100D70000548064940F2152204F076FB002420467F
:100D800006B0BDE8F08100BFED6000002561000005
:100D90002DE9F04105460E4690461C46002B60D0DA
:100DA000184611B901F0FAF807E091F8021101F0C4
:100DB000F5F896F80631002B56D194F8243084F8D3
:100DC0006C80022B1AD0032B2FD0002B49D1284640
:100DD00001F00AFA50B92846A16D01F01BFA41F65C
:100DE0000C33EC5041F61833EC5037E041F618362E
:100DF0002146A85901F03DF9AC512FE0284601F0F9
:100E0000F9F950B92846A16D01F0FEF941F6103309
:100E1000EC5041F61C33EC501AE041F61C372146E9
:100E2000E85901F026F9EC5112E0284601F0E8F902
:100E300005F5D95738B92846A16D01F0F1F941F609
:100E40001433EC5003E03868214601F012F93C609D
:100E50002660304641462246FFF71BFD0120BDE8D3
:100E6000F0810020BDE8F0812046012101F0A3F8C7
:100E7000A3E700F5D95308330020994206D001308A
:100E8000052803F58673F8D14FF0FF30704770B531
:100E900006460D46FFF7EDFF431C044619D06420BB
:100EA00002F0AFFC95F8FC301BB9304601F03CFA7B
:100EB00004E0686895F8FD1000F0E0FF642002F09F
:100EC000A0FC301900F50150012380F83D300020CE
:100ED00070BD122070BD00002DE9F04F91F8033174
:100EE00085B0092B05460C461CD1086830B943492A
:100EF0004FF4CA72424804F0B7FA13E000F057FE0C
:100F0000226805F5025308339A4205D005F50353CC
:100F10009A4207D1012300E0002342F2F8022B4459
:100F200000219954606810B1214600F039FE28462E
:100F30002146FFF79EFF431C5DD02B1803F501529D
:100F4000002603F5015300F61A0082F8246005EB31
:100F5000800883F83D6004F1380A5FFA86FB4FF0A1
:100F6000000908F8019F20465946FFF771FC002848
:100F700036D020465946FFF76BFC4378994520DA76
:100F8000204659465FFA89F2FFF7E7FC0746A8B109
:100F9000836D28461A68196842F480421A603946FF
:100FA000FFF736FE2846F96D01F0B5F92846396E8F
:100FB00001F0B1F92846B96D01F0A6F909F101096E
:100FC000D7E794F8FC30CDF800A0019394F8FD30F9
:100FD0000C480293094940F2BD12234604F044FA3A
:100FE0000136042E0AF13C0AB7D1204605B0BDE80F
:100FF000F04FFFF77EBC05B0BDE8F08F2561000023
:101000005A6100007C61000030B500F5D9540C3401
:10101000002094F8F8508D4207D194F8F950954289
:1010200003D153B12568AB4207D00130052804F540
:101030008674EED14FF0FF3030BD30BD2DE9F8435E
:10104000089CCEB2D5B21F46314623462A4680467A
:10105000FFF7DAFF431C04D0404400F502508378C8
:101060009BB942F25019002158F8090001F088FD9F
:1010700001230370067245728772C460014658F8F6
:101080000900BDE8F84301F09DBDBDE8F8832DE9F6
:10109000F041CEB2D5B231462A461F460446FFF78C
:1010A000B3FF431C18D0204400F5015090F82430C1
:1010B00093B142F25018002154F8080001F060FD8D
:1010C0000223037006724572C760014654F8080097
:1010D000BDE8F04101F076BDBDE8F0812DE9F843AF
:1010E0000C4600F5095620364FF0FF3107463046D2
:1010F00091461D4602F03CFB616E002939D094F800
:10110000273043B994F82620022A0CBF4FF48010F0
:101110004FF4002000E0002094F82480B8F1000F84
:1011200006D1002B14BF4FF000734FF0407300E066
:10113000002340F0704040F480201843013D0B68CC
:10114000086009EB05024B68C1F80490CB6838468B
:10115000CA60414601F084F8204600F061FF38463D
:10116000414601F061F8304602F005FB1120BDE870
:10117000F8831220BDE8F88310B50446FFF779FE26
:10118000431C0ED000F61A008000221804302318E9
:10119000002012F8011F09B10130C0B29A42F8D103
:1011A00010BD002010BD2DE9F04F00261446374633
:1011B000B046354689B00490039106930296069B8B
:1011C0009D4280F09B80635D04EB0509059399F8CF
:1011D0000130042B17D007D8022B40F08C802379E4
:1011E000039A82F8093186E0052B3FD0212B40F08D
:1011F000828099F8082099F8073043EA0223049A7C
:10120000A2F8C43077E0129B05F1070914F80970C1
:10121000186805F1020C009705F1050B05F1060AA7
:1012200014F80C10CDF81CC0476814F80B2014F803
:101230000A301298B847DDF81CC0002857D008F1D2
:101240000107B8F1040FFFB253D814F8091014F8CD
:101250000C6014F80A30009114F80B200398314602
:10126000FFF704FBB846002301273EE0002F42D0E1
:10127000B8F1040F3FD8029B022B3CDC129B05F116
:10128000020A196814F80A3005F1030B14F80B2050
:10129000DB110133D1F808C01298314602F0030285
:1012A000DBB2E04738B314F80B1001F00301012959
:1012B00021D014F80A0099F805E099F80430C21119
:1012C000013200F00F00009043EA0E230498D2B2DE
:1012D000FFF718FD034630B1039A22B11146049876
:1012E0003246FFF755FD029B0133029303E00746A8
:1012F00001E0B8460127059B1D4460E709B0BDE841
:10130000F08F0000F0B505460E4689B004A82946C6
:101310001F461446FFF752FC9DF84430002B14BFC3
:101320000123022326B93448344940F2EE3204E066
:101330003CB940F2F3323248304904F095F81224B7
:1013400054E094F82520102A17D0266894F86C30C1
:1013500020463C2505FB036500F058FE3835029019
:10136000234600960195274824494FF47E7204F0E5
:101370007BF894F82540E4B238E094F826209A42AD
:1013800005D194F824209DF840309A4209D040F2CB
:10139000FD3223681C4819490093234604F064F881
:1013A000CDE7A36D196896F8023101F07F018B42F9
:1013B00006D0236815480093104940F20242ECE73A
:1013C0000E9B284621463A46FFF788FE9DF83C30A2
:1013D0005BB1616805A84FF0FF3201F0E5FA94F8BF
:1013E0002540102C08BF002400E0112404A8FFF7BA
:1013F000F1FB204609B0F0BDC2610000256100008C
:10140000DD610000F76100008462000032620000CC
:101410001FB5069C00949DF81C400194032402947F
:1014200000240394FFF76EFF04B010BD2DE9F04FC8
:101430000446894641F6083585B0214668469346FC
:101440009A460E9E119F9DF84880FFF7B7FB6059A2
:1014500099F8061100F0AFFD6059D9F8F81000F0C6
:101460008FFD99F80721605902F0FF010AB199F840
:10147000021100F093FD42F2FA0304F803B042F2C5
:10148000FB0304F803A042F2FC03E65442F2FD031E
:10149000C6F30726E65442F2FE039DF83C2041F6CF
:1014A0000836E2540F9B3A12C3F3072542F2FF03BA
:1014B000E55404F504531F7042F2011304F5035977
:1014C000E254A059002109F13A0900F080FDA15928
:1014D0004A4608232046FFF701FEA35901A8596890
:1014E0004FF0FF3201F060FAA35993F82550EDB2A6
:1014F000102D3DD1FFB941F60835B8F1000F14BFEA
:101500004FF480114FF40021605900F060FD00227B
:10151000615913462046FFF7E1FD635901A8596858
:101520004FF0FF3201F040FA635993F82550102D27
:1015300008BF00251CE0B8F1000F14BF4FF40021D4
:101540004FF48011A05900F042FDA159109A3B467A
:101550002046FFF7C3FDA35901A859684FF0FF3299
:1015600001F022FAA35993F82550EDB2102DC2D004
:101570006846FFF72FFB284605B0BDE8F08F10B591
:1015800086B0089C0094099C01940A9C02940B9CD0
:10159000039400240494FFF749FF06B010BD7FB503
:1015A000112B1C46089D88BF12234FF480764FF004
:1015B000000E029203938DE8404080220623FFF73D
:1015C000DEFF1DB1122C28BF12242C8004B070BD88
:1015D0002DE9F043002485B01D464FF400738DE8DB
:1015E000180009230292039316460623802281469F
:1015F00088460C9FFFF7C3FF044638B110481149D5
:1016000040F2023203F030FF204615E0F278B37862
:1016100043EA0223AB4228BF2B4607B13B804FF47D
:10162000007100228DE80600039302964846414669
:1016300080220623FFF7A3FF05B0BDE8F08300BFBB
:10164000CB6200002561000010B586B0089C0094B4
:10165000099C01940A9C02940B9C03940124049419
:10166000FFF7E4FE06B010BD1FB500920022019204
:10167000029203920523FFF7E7FF05B05DF804FB34
:101680002DE9F04F04468DB004F5055909F1100914
:1016900009A8D9F800104FF0FF3201F09DFA099B1C
:1016A000202BF1D10A9E3578022D00F00281042D05
:1016B00000F03781012D40F06181002506A8214608
:1016C0008DF82050FFF77AFA04F50153233313F80D
:1016D000018FB8F1000F39D14FF4867707FB05472A
:1016E000B37A07F5D957003307F10807727A18BFA4
:1016F00001233846317AFFF7EEF8631903F50152FA
:1017000082F83D8004F5D95808F1040898F800A043
:1017100003F502534FF0010B83F802B0BAF1000F4A
:101720001DD151465A460823CDF800A02046FFF7A8
:10173000E9FA04F5D853986008331B6820465146EF
:101740005246FFF725FB88F800B008E00135052D6B
:10175000BDD18F4961228F4803F086FE14E1F26803
:1017600032B14FF4867303FB054303F5D953DA60B6
:101770004FF00A0A4FF4867808FB054839462046A0
:10178000FFF785FB08F5E15CE0464FF0080B00230E
:10179000D844CCF800B0204688F80730394600938A
:1017A00007AA5B46CDF814C0FFF7F9FEDDF814C0B8
:1017B00018B1794876497F220DE09DF82330204604
:1017C000CCF80030394698F80220FFF74DFF28B1D9
:1017D00072486F498A2203F047FE28E0012388F807
:1017E00007303946009007AA20465B46FFF7D7FE30
:1017F000D0B9337A6A480093737A654901939B2282
:101800003B4603F031FE9DF82030092B40D104F512
:10181000035804F5025A04F5035B08F137080AF18E
:10182000080A0BF1390B08E0642001F0EAFF0AF125
:10183000FF3A1AF0FF0A9DD1DBE718F8013F5BB1D0
:10184000D8450AF1380AF8D156485149AE2203F07A
:101850000BFE4FF001081DE0032350463946059367
:1018600000F0C4F9059B58B14FF4867303FB0543A0
:1018700003F5D953C3F808A0012388F8003003E02A
:10188000013B13F0FF03E8D198F80030002BD7D0CC
:101890004FF00008F06810B1394600F07BF9B8F15C
:1018A000000F71D1254405F50155012385F8243039
:1018B0006AE0214606A8FFF781F90021204600F0E2
:1018C000CFFC29460746204600F0CAFC032180468B
:1018D000204600F0C5FC727A0546317A2046F3684E
:1018E000FFF792FB421C09D04FF4867101FB0041C7
:1018F00001F5D95120460831FFF7EEFA1FB1204615
:10190000002100F091FCB8F1000F03D02046022125
:1019100000F08AFC002D37D02046032100F084FC23
:1019200032E0F37A7768102B3D6904D105F1380075
:1019300002F0F7FD22E020462968FFF79AFA431CDF
:101940001CD0204400F5015090F82430B3B1284653
:1019500000F05CFB2B688DE82100029395F86C2069
:101960003C2101FB0233383303930F483B460849BF
:10197000ED2203F079FD102385F82530D9F8000019
:10198000314601F00FF97FE606A8FFF723F9F5E7E6
:1019900025610000E6630000F56200002B63000093
:1019A0004D630000166400008E63000008B5FFF769
:1019B00067FE1FB500920022019202920392092352
:1019C000FFF742FE05B05DF804FBF0B504460E4695
:1019D00085B02146002503A81746ADF80A50FFF749
:1019E000EDF820463146FFF744FA01300AD0204690
:1019F0003146FFF7C1FB38B196F80931834203D174
:101A00002C464EE012244CE004F5095500233435F1
:101A10000093204631462A461223FFF7C0FD0028D6
:101A20003ED142F27823E35C42F27D2186F8033115
:101A300042F27923E35C42F27C2E86F8043142F2D2
:101A40007A23E35C42F27E2086F80531625C14F86A
:101A50000E3043EA022342F27F22A6F8FE3014F849
:101A600002C0235C43EA0C23A6F8003114F801C03D
:101A70003B6814F80E1014F802E0225C1B6838462C
:101A800041EA0C2142EA0E2298470DF10A03009325
:101A9000204631462A4640F29F13FFF799FD20B1B8
:101AA000044603A8FFF796F81DE0BDF80A3000973A
:101AB000204631462A46FFF776FB96F8083153B1A7
:101AC000012386F8083103A8FFF784F8642001F0A9
:101AD00098FE002407E0204631460122FFF769FF07
:101AE0000028DDD1ECE7204605B0F0BD704710B509
:101AF000046A013408D1092A06D12BB99DF80820BF
:101B000012B90162012010BD002010BD10B5046A99
:101B1000A14208D1032A06D1022B04D1012380F867
:101B20002430184610BD002010BD13B5044608220D
:101B3000684603F0EFF80198009B10F0010F4FEAA0
:101B4000600018BF2258204418BFD358984702B0ED
:101B500010BD00234FF0FF32037383600361026204
:101B600080F82430037543758362C3620363436363
:101B70007047000010B50446034B03600023436028
:101B8000FFF7E7FF204610BDF8640000FFF7E1BF54
:101B90004160704791F8FD30093340F823107047D9
:101BA00091F8FD300022093340F82320704770B5CA
:101BB000054600F1240400F1340654F8041F11B165
:101BC0006868FFF789F9B442F7D170BD1FB50346C5
:101BD0008DE80600002202920392996823220323D3
:101BE0004068FFF731FD05B05DF804FB2DE9F047D3
:101BF000077B88B004460D46002F40F09F80406868
:101C00002246FFF7E2FE804620B12046FFF7A1FF03
:101C1000002793E094F82470002F00F08F8000904C
:101C2000A56094F82010284603220223FEF777FED1
:101C300020610028E9D0B5F80021B5F8FE308DE824
:101C40002400226A3F4902923F48672203F00CFCBD
:101C500094F820004FF03C0909FB00503B49383014
:101C600003F0EDFC666829463046D4F820A0FFF763
:101C700000F9411C1FD0F4B15FFA8AF209FB02F9A6
:101C800005EB090A06EB80035046134403F50153A4
:101C9000012183F829102E4BCAF82040243004A9D2
:101CA00008220493CDF8148003F034F8294BCAF8C5
:101CB0001C80CAF83430266984B1274B4FF00008E5
:101CC000F46306F1400006A908220693CDF81C80B3
:101CD00003F020F81F4BC6F8388033654FF42452C8
:101CE00000238DE80C0004F116080A230393CDF8B5
:101CF0000880062360682946A022FFF740FC237E67
:101D000001262375637E6375237DB34207D3324674
:101D1000204608210136FFF759FFF6B2F4E7E07ECE
:101D20000126400001F089FF0023019300966068BE
:101D3000294622694346FFF76BFB2673384608B0F5
:101D4000BDE8F0878764000044640000C2640000BE
:101D50008D1B00002B1B0000A11D00001FB50346BA
:101D60008DE8060000220292039299682322012343
:101D70004068FFF769FC05B05DF804FB7FB50246DB
:101D8000019105A902910023042100930391916818
:101D90004068A322FFF7F3FB059807B05DF804FB4A
:101DA0000369F7B50446002B61D093F82530102B5A
:101DB0000BD0012300258DE828006068A168226906
:101DC00004F11603FFF724FB51E00125237D9D421A
:101DD000EFDCEFB220463946FFF7D0FF0646F003AE
:101DE0001DD56068A36816F0010E026893F8FC1018
:101DF00008D00094D2F800C001312A46C6F340232F
:101E0000E04707E0CDF800E0D2F804C001312A46EF
:101E10002346E047204610213A46FFF79FFFF10294
:101E200004D5204614213A46FFF798FFB20304D5A3
:101E3000204611213A46FFF791FF330715D50D498A
:101E4000D2220D4803F010FB204608213A46FFF746
:101E500085FFA268606892F8FC1003680022009277
:101E60005E6801312A462346B0470135AEE703B02C
:101E7000F0BD00BF87640000C664000073B50D4666
:101E800004212A460446FFF7A1FE20462946FFF713
:101E900075FF10F012061BD1030715D50D49E62278
:101EA0000D4803F0E1FA20462A460821FFF756FFC5
:101EB000A268606892F8FC10036800965E680131C1
:101EC0002A462346B04703E00A2001F09AFCDCE7EB
:101ED00002B070BD87640000C664000070B580F871
:101EE0002420B2FA82F20446069D520980F8263078
:101EF000816580F82720294608225C3002F00AFF1D
:101F000028680021202202F010FF686800212022AA
:101F100002F00BFFE56D266E2B692C613369A36D12
:101F20003461002219681A6059685D6099689D6083
:101F3000D968DA6094F826109DF81420481E02F043
:101F40007F0242EAC01084F82800D00194F82420CF
:101F500002B1CA0242EA0001049AC2F3090241EA4C
:101F60000242196800211A60102384F86C10E162A3
:101F70002163616361656566A66684F8253070BD7E
:101F8000836D1A68186822F07F7222F440321A605A
:101F90001A6842EA01411A6819607047836D01F0BE
:101FA0007F011A68186822F07F021A601A680A43D3
:101FB00019681A607047836D1A68186822F4005215
:101FC0001A601A6842EA41311A6819607047B1F51F
:101FD000002F09D0B1F5801F04D059B9012380F832
:101FE000263005E0022300E0012380F8263000239C
:101FF00080F827307047000012299EBF024B13F86B
:10200000313080F825307047AC66000090F825200C
:10201000024B03EBC2035868704700BFAC66000078
:10202000426ED368516801335B1AC362036353681D
:10203000816E4363112380F825309368836D91602E
:102040005A68596070470B6800230B6010B54A68E6
:102050004B60CA68CB608A68826D8B6054689368F5
:1020600003F00203234394689360836E81664366A2
:1020700010BD4165836D01B1896DDA68D960704723
:1020800010B50446104B4FF4807203600F4B0021D3
:1020900018600F4800F58073A36000F598636060D6
:1020A000E36002F042FE0022A118013200233C2A24
:1020B0000B74F9D1E21801330021782B82F84C100F
:1020C000F8D1204610BD00BF50670000000200108C
:1020D000000008203D4B2DE9F3414FF080723C4C4D
:1020E000C3F88020D4F8C430064623F00043C4F877
:1020F000C430642001F0A1FDD4F8C43043F00043A3
:10210000C4F8C430334BD3F8F42F42F01902C3F8AB
:10211000F42FD3F8F82F2F4C02F01902192AF8D116
:10212000D4F81031002543F00103C4F81031D4F87D
:10213000F43F642023F00803C4F8F43F264B012742
:102140005A684FF4803822F070525A605A6842F050
:10215000A0525A6065602562A56201F06EFD1F4BBA
:10216000A760636342F62F2323646368182023F07B
:10217000C00343F0800363607368C4F85080A361B8
:10218000E368E26816491343E360164B236101F0EC
:1021900059FD4FF48013C4F8548063650B4B4FF026
:1021A00080721A60636DDB070CD5962001F045FD47
:1021B000636D326800951468304629463A46C3F389
:1021C0004023A04702B0BDE8F08100BF00E100E07D
:1021D00000C00F4000C0005000C00240DF2E782732
:1021E0001124000042000080014B186A704700BFB4
:1021F00000C00050014B986A704700BF00C00050FB
:102200004368186870470000014B9962704700BF2F
:1022100000C00050014B1962704700BF00C0005061
:1022200043681A6819607047022909D003290FD042
:1022300099B90A4B02229A605A6842F0100205E0EE
:10224000064B04229A605A6842F020025A60704796
:10225000024A536843F004035360704700C00050C3
:1022600002290BD0032912D0E1B90F4B586810F0A6
:10227000100018D05A6822F0100210E00A4B58687B
:1022800010F020000FD05A6822F0200207E0064B21
:10229000586810F0040006D05A6822F004025A6010
:1022A000012070470020704700C0005008B500238F
:1022B000C218117C29B980680121117400EB031048
:1022C00008BD01333C2BF3D1024803F0C5F80020D0
:1022D00008BD00BF6067000008B50023C21892F86F
:1022E0004C1031B9C068012182F84C1000EB43104A
:1022F00008BD0133782BF1D1024803F0ADF800207E
:1023000008BD00BF786700008368C91A00EB111090
:10231000002303747047C368C91A00EB51100023EF
:1023200080F84C3070470000054B10225A655A6DFA
:10233000D206FCD4024B4FF480125A65704700BF9E
:1023400000C00050F7B5314E0446F36832691A42B6
:1023500059D0F36835691D4015F0400F05F00205AE
:1023600044D0736DD80338D5376D17F4004730D19A
:10237000736DD9070DD5962001F05FFC736D22684F
:1023800000971668204639460122C3F34023B04720
:102390001FE025B96368D3F88420C3F88450C820AF
:1023A00001F04BFC63682268D3F88430002123F0ED
:1023B000010300935668204601220B46B04745B101
:1023C0006368D3F884200022C3F884200F4B0222D4
:1023D000DA600E4B4FF480325A650C4B5A6DD202C4
:1023E00044BF4FF480125A654022DA605DB16368E1
:1023F0002046D3F88410236821F001019B68984798
:10240000024B0222DA6003B0F0BD00BF00C00050F2
:10241000024B186808B1FFF795BF70470002001023
:1024200038B1830704D10378002B18BF0020704710
:102430000020704700B5DFF80CC000DFDFF808C0EF
:1024400000DFFEE7E1250000F92500000B4A30B56A
:102450001368002433B11D89A94203D31C46491BCC
:102460001B68F7E789B20360018113B11D89691AFE
:1024700019810CB1206030BD106030BD9C0400108B
:10248000431C11D00B4B984211D80B4B4FF47A716F
:102490001B685A1E01FB0020B0FBF3F04FF6FE73E1
:1024A000984228BF184670474FF6FF7070474FF6A6
:1024B000FE70704700093D009467000038B5084C75
:1024C000257855B901F07CF8064BFF221B68284699
:1024D0009A7001F007F901232370002038BD00BF76
:1024E00098040010D404001010B5EFF305845CB913
:1024F000EFF31484E40703D4BDE81040FFF7DEBF18
:10250000DFF808C000DF10BD822010BDBD24000030
:1025100010B588B0EFF3058434BBEFF3148404F0F6
:102520000304022C0CD0032C16D0012C1ED008ACB6
:1025300084F309880F4C2478E40705D5022404E0CD
:102540000C4C2478E4070BD4032484F31488BFF3E1
:102550004F8FBFF36F8F03E0064C2478E40705D458
:10256000DFF814C000DF02E0822000E0FF2008B0A6
:1025700010BD00BF9C67000031280000F8B504467C
:1025800050B1026842B18388D81C80B2062803D8B3
:10259000A06808B1E66826B9802001F0A3F8002001
:1025A000F8BD04F11005E162191DC9B2A663608689
:1025B000284600F031FF00F01DFF074E471E46F889
:1025C0002750E074284600F045FF56F82700034ADC
:1025D000436A5A63F8BD00BF10070010352400009D
:1025E00008B500F073FF18B1024B013853F8200012
:1025F00008BD00BF1007001008B5FFF711FF38B184
:10260000C07800F0A5FFFF280CBF8120002008BD86
:10261000802008BD70B505460C46EFF3058686B9E7
:10262000EFF31486F60706D4074E36781EB9BDE8D8
:102630007040FFF7A3BF28462146DFF810C000DF37
:1026400070BD002070BD00BF990400107D25000002
:1026500010B5EFF305841CB9DFF808C000DF10BD2A
:10266000822010BDF925000008B530B1FFF708FF42
:1026700080B201F031F8402008BD08BD10B5EFF37D
:1026800005841CB9DFF808C000DF10BD822010BD32
:1026900069260000830704D128B10369C1681B685B
:1026A00003E0002300E00346194618467047000087
:1026B000F8B5134B1C681F460CB32389013B2381DB
:1026C0002389E3B90F4B26681D683E6055B12B780E
:1026D000012B07D1284600F059FC18B128462146A5
:1026E00000F058FC6379012B04D120466189FFF783
:1026F000ADFE01E0012323710EB13446E0E7F8BDE1
:102700009C040010F007001010B504460846DFF8DE
:102710000CC000DF84E80300204610BD95260000B1
:1027200010B520B9802000F0DDFF002010BD046846
:10273000002CF7D02378002BF4D1204600F00CFDBC
:10274000204610BD70B510F0030405460E4611D1A9
:1027500080B10378032B0DD10846FFF791FE81B2BB
:10276000284600F057FD012806D1002E14BFC120D5
:10277000812070BD802070BD204670BD820708B5E5
:102780000AD148B10378032B06D100F0EDFCFF28F5
:102790000CBF8120002008BD802008BD30B5044654
:1027A000EFF305857DB9EFF31485ED0706D4074DEA
:1027B0002D781DB9BDE83040FFF7B2BF2046DFF8E5
:1027C00010C000DF30BD002030BD00BF99040010F4
:1027D0002127000010B5EFF305841CB9DFF808C00D
:1027E00000DF10BD822010BD4527000010B5EFF3BB
:1027F00005841CB9DFF808C000DF10BD822010BDC1
:102800007D27000010B5044618B1016809B1406881
:1028100020B9802000F066FF002010BD0378002B57
:10282000F7D10431890089B200F008FB606810BD5F
:1028300038B5104D2C78D4B921460F48FFF7E2FF88
:102840000E4B214618600E48FFF798FE0D4B2146AF
:102850001860204600F042FE0B4A13685B6A203382
:1028600083F30988146000F019FF01232B70002006
:1028700038BD00BF9904001008010010F0070010D7
:1028800010010010F40F0010D404001070B50E46B3
:102890001546044688B10378012B0ED11046FFF788
:1028A000EFFD314682B2204600F0D6FA012806D16B
:1028B000002D14BFC120812070BD802070BD00207C
:1028C00070BD2DE9F04F0C4685B08046E8B1037825
:1028D000012B1FD10846FFF7D3FD02A982B2404663
:1028E00000F002FB012806D10020002C024603461E
:1028F00018BF402003E00020024603461020029942
:1029000004460D4616461F4608E080240546064646
:10291000074603E000252E462F4680242046294600
:1029200032463B4605B0BDE8F08F000070B5054665
:102930000C46EFF3058686B9EFF31486F60706D446
:10294000074E36781EB9BDE87040FFF75BBF2846DA
:102950002146DFF810C000DF70BD002070BD00BF51
:102960009904001005280000F8B505460E461446E7
:10297000EFF305876FB180B17AB90378012B0CD1E1
:1029800000F004FB58B12846314600F003FB204616
:10299000F8BDDFF810C000DFF8BD8020F8BD812051
:1029A000F8BD00008D2800007FB504461646084695
:1029B000EFF30581A9B101AD00B10AB180230AE0AE
:1029C0000378012BFAD102A900F0EBFA042801D018
:1029D000019601E01023019395E8070084E80700C1
:1029E00005E01146DFF80CC000DF84E80700204650
:1029F00004B070BDC32800007FB50A4B03A8196856
:102A00004FF0FF32FFF7D0FF039B102BF5D101A849
:102A10000499FFF779FE019B002BEED002989847AE
:102A2000EBE700BFF007001038B5044628B1016895
:102A300019B142680AB1836823B9802000F052FEC0
:102A4000002038BD58681D680028F6D0002DF4D04D
:102A50002B78002BF1D1033222F0030251430C31C9
:102A600000F034FB216828460431890089B200F067
:102A7000E5F9A06838BD0000F8B50D461F4658B30B
:102A800090E8500046B33CB302B129BB304600F099
:102A900042FB57B150B10346B168CA1AD04203D0C5
:102AA000002243F8042BF8E7F8BDB0B9A5B162687D
:102AB0000A4B22B12046196800F0C8F805E01B68EF
:102AC00063605A609C60032363702846FFF7D8FC5C
:102AD000082180B200F0E0FC0020F8BDD404001012
:102AE000F8B5174650B390E860003DB336B33046B2
:102AF00000F01EFB20BB6B78032B1DD137B128469D
:102B0000314600F07BF900F0CFFB15E0304600F0D5
:102B100002FB064680B1284600F0B0F86B68044618
:102B200003B96B702046314600F028FF204600F0C4
:102B300051F9204600F08EFC0020F8BD8020F8BD41
:102B40008620F8BD70B505460C46EFF3058686B9BC
:102B5000EFF31486F60706D4074E36781EB9BDE8A3
:102B60007040FFF761BF28462146DFF810C000DF44
:102B700070BD002070BD00BF99040010292A00001C
:102B800000B5EFF305822AB1012200235DF804EBC2
:102B9000FFF772BF1346DFF808C000DF5DF804FBE3
:102BA000792A000000B5EFF3058222B101225DF819
:102BB00004EBFFF795BFDFF808C000DF5DF804FB0A
:102BC000E12A000020B129B100680022FFF7CCBE45
:102BD000802070478620704710B5044609B98023CD
:102BE00006E00968FFF7E0FE2368102B08BF2023EA
:102BF0002360204610BD000010B5038B42781943B6
:102C0000062A04460183438B04D101EA03029A4257
:102C100019D105E0052A16D111EA030213D0428327
:102C200021EA03012183204600F0D4F80123204645
:102C300063700821628B00F0A4FE2146BDE81040BD
:102C4000014800F003B810BDA004001030B50278B0
:102C50008C78013A4368D2B22BB19D78A54202D359
:102C600018465B68F8E7022A4B60416003D803B15D
:102C70009960886030BD00238B6030BD4368027866
:102C80005968013A022A41604FF0000204D809B1A4
:102C900088605A609A6000E05A60184670470000E9
:102CA000034B5A684260002282605860704700BF40
:102CB000A0040010114B10B5DA680AB19A8A0CE032
:102CC00000248A1AC460D86003619A82848210BD8D
:102CD000002CF5D0A38A1A4423468A42DC68F7D335
:102CE000C460D860C468036104B12061521A92B212
:102CF0008282998A8A1A9A8210BD00BFB804001095
:102D000038B5194DEB68002B2CD0AB8A013BAB8258
:102D1000AA8A002A26D1144BDC681CB3A3683BB1F5
:102D200061685960616809B18B6062600023A360CB
:102D30000E482146FFF78AFFA38AAB826378042BF3
:102D400001BF0B4B1A68E38A9B1808BFA3820123BB
:102D50006370E3680022EB6013B103491961E2601C
:102D60002261D5E738BD00BFB8040010A0040010F0
:102D70000C050010836853B9084B3BB15A68824276
:102D800002D142685A6070471346F6E770474268BE
:102D90005A60426802B19360704700BFA0040010FF
:102DA00038B58468054624B94378012B0ED1084C08
:102DB00003E023780BB9A468FBE72846FFF7DAFFA6
:102DC00020462946BDE83840FFF740BF38BD00BF68
:102DD000A0040010036910B573B1C268DA60C2685C
:102DE0003AB1998A848A2144998213610023C3608D
:102DF00000E09A820023036110BD000030B50E4B45
:102E0000DD78EFF3108272B69A78AA4207D20132C7
:102E10009A701A78541CAC4208BF00241C7062B629
:102E2000AA4204D203EBC2035860996030BD02206D
:102E3000BDE8304000F054BC6C070010012310398D
:102E400003708908002343708370436003814381CA
:102E50008381C18170470000F8B5466803460C467F
:102E600017468EB14278012A0ED1FFF707FF0546BB
:102E70001021224600F085FD2846FFF7ABFF2846CB
:102E800000F0E8FA0020F8BD9989D889814214D170
:102E900037B3144D26B118462968FFF7D7FE05E071
:102EA0002968022259604E608B605A702B68384640
:102EB000DC61082100F0F0FA12E01A89151D43F8D0
:102EC0002540EFF3108472B60131998162B6013268
:102ED00092B282424FF0000014BF1A811881F8BDEF
:102EE0000120F8BDD404001070B58589044616464B
:102EF000002D34D043891A1D50F8222001330A6076
:102F0000C2899BB29A42438104BF00234381436834
:102F1000EBB14378022B1AD1FFF7B0FE0546002132
:102F200000F02CFD2389E9691A1D44F822100133B1
:102F3000E2899BB29A42238108BF0023284608BF3A
:102F40002381FFF747FF284600F084FA05E0EFF3FE
:102F5000108372B6013DA58162B6002070BD82B1BA
:102F60004268094B1AB11968FFF770FE05E01B684B
:102F700043605A609860012343703046082100F096
:102F80008BFA012070BD00BFD4040010C289808973
:102F9000101A704708B5FFF731FFBDE8084000F090
:102FA00083B9838910B50446EBB14389043350F8E3
:102FB00023300B604378022B04D10021FFF71EFF62
:102FC00000F072F9EFF3108372B6A389013BA3817D
:102FD00062B66389E28901339BB29A42638104D16C
:102FE0000023638101E0184610BD042010BD0000DD
:102FF000426870B504460E46002A4AD04578022D34
:103000001CD0032D0AD0012D5DD1FFF737FE0446F9
:103010001021324600F0B5FC657034E0084600F03F
:103020007AF8054600284ED02046FFF727FE0446D2
:10303000294600F0A3FC0123637024E0FFF71EFE85
:103040000546002100F09AFC2389E9691A1D44F81D
:103050002210EFF3108272B6A2890132A28162B609
:10306000E28901339BB29A42238104BF002323816A
:10307000012328466B70FFF7ADFE29461248BDE8D4
:103080007040FFF7E3BD2046FFF7A4FE0E4821463F
:10309000F5E78189C089814210D223891D1D44F83A
:1030A0002560EFF3108572B60131A18162B601335C
:1030B0009BB2834214BF2381228170BD0320BDE8EF
:1030C000704000F00DBB70BDA0040010002ABBBF13
:1030D00022F000420732033222F00702A8BF22F09A
:1030E000030210B5B4BF10230C2392B19C188C427C
:1030F0000FD801440344544241600360826021447C
:103100009818884202D800510346F9E70020186059
:1031100010BD012010BDEFF3108372B6026803F0FA
:1031200001030AB11168016003B962B61046704725
:1031300081420DD3436899420AD2EFF3108372B6ED
:1031400002680A60016013F0010003D162B67047A3
:103150000120704700207047032303700023437051
:1031600043804360836070472DE9F84344880646F6
:10317000002C47D0DFF898808168D8F80030994259
:1031800040D1013CA4B2448014B10020BDE8F883D2
:1031900043781E4F8B7045682DB3FFF76FFD0546D2
:1031A000214600F0EBFB4FF001092846FFF712FE25
:1031B000A6F80290B560AB787370D8F800107B6801
:1031C0008A789B789A4219D23846FFF73FFD3846F5
:1031D0002946FFF73BFDD8F80030204683F80190E0
:1031E00085F801900BE07A6892789A42CDD93846FA
:1031F000FFF72CFDD8F8003001225A70284600F065
:1032000029F9C2E7FF20BDE8F88300BFA004001041
:10321000D4040010438870B504460E46144D23B9FB
:103220002A6882609278427003E0826829688A4244
:1032300003D101336380002070BDB6B18B78417833
:10324000994203D293708068FFF7AAFD626822B1A9
:1032500020462968FFF7FAFC03E02B6863605A6098
:103260009C603046092100F017F9012070BD00BFB5
:10327000D4040010426810B57AB1FFF7FFFC044691
:10328000FFF7A8FD01216170204600F077FB214681
:10329000BDE810400348FFF7D9BC428801324280A4
:1032A00010BD00BFA0040010054B1B7823B9054BCF
:1032B0004FF080521A607047034B01221A7070471A
:1032C0000502001004ED00E00402001038B5184BB0
:1032D000184D186801234370FFF7E2FC6C78AA7858
:1032E000144BEAB103EBC403586802781AB9198980
:1032F000FFF782FC07E0012A03D19968FFF778FE07
:1033000001E0FFF7B7FFEB7801349C4208BF0024CF
:10331000EFF3108372B6AB78013BAB7062B6DEE7B9
:103320005C700548FFF7AAFCBDE8384000F08AB899
:10333000D40400106C070010A0040010084B4FF0DC
:10334000FF301A68074B1A6000225A60072243F8C0
:10335000042C054A136843F07F431360704700BF95
:10336000A467000014E000E020ED00E070470000DA
:1033700008B50B4B186801234370FFF791FC00F070
:1033800011FB084A136801331360FFF7B9FCFFF71C
:103390008FF90548FFF772FCBDE8084000F052B80D
:1033A000D40400100C050010A0040010084B1B688A
:1033B000DA78012A0AD09A6A5B6A9A4203D81268BC
:1033C000044B9A4202D0012000F08AB9704700BF36
:1033D000D4040010A52E5AE208B50448FFF74EFCAD
:1033E000034B58600223437008BD00BFA0040010C7
:1033F000D4040010064B01201A88064B904204D8D2
:1034000053F8041F11B10130F8E70020704700BFE6
:10341000906700000C07001030B5002401250470EF
:103420004570817044608460C46004618482C48299
:103430000483448380F820401146BDE8304000F00A
:1034400077BA0000024B586002234370704700BFF8
:10345000D404001070B5044618B9BDE87040FFF7F9
:10346000BBBF0B4DA2782868012683789A4207D902
:10347000FFF716FC2B685E7002236C60637070BDF2
:1034800066702146BDE870400248FFF7DFBB00BF11
:10349000D4040010A004001038B50D46014678B1E0
:1034A0004FF6FF739842074C02D02068FFF702FCEA
:1034B000236805485D70FFF7E1FB022360604370FD
:1034C00038BD00BFD4040010A0040010024B1868DF
:1034D00000B1C078704700BFD404001010B588B99F
:1034E000174B1B689970174843689B788B4222D909
:1034F000134C2168FFF7AAFB236801225A70FFF7DB
:103500006BFF18E0104B1B88984216D80F4B013800
:1035100053F820408CB10A4BA1701B689C42E2D04A
:103520002046FFF73DFC6378012B04D10548FFF7E7
:10353000A5FBFFF78FFF002010BDFF2010BD00BFCF
:10354000D4040010A00400109067000010070010C1
:1035500070B5184D18B12B68DB78984213D12E68DE
:103560000024747000F053F97062FFF71FFF2A689F
:103570001149D3782C60013B41F823409462FFF756
:103580002BFF204670BD0D4B1B8898420FD80A4E6A
:10359000441E56F8245055B12846FFF7EBFB284649
:1035A000FFF718FC002046F82400A86270BDFF2039
:1035B00070BD00BFD4040010100700109067000019
:1035C00010B5284B1A880023934205D226490020C3
:1035D00041F823000133F7E7244CFF23E370244B29
:1035E00020461B8800216384224B234AA362FFF7F5
:1035F00013FF224A0023042111705360204A1170E6
:10360000D360136193821F4A1460022262701E4AC3
:10361000137053701D4B1B78D37000F0B7F91C4B1F
:103620001A6842F47F021A601B681B0203F07F4392
:10363000DB43B3FA83F3174ADBB21268C3F1080322
:10364000C2F3022214489A42A8BF531C6FF0807143
:10365000026801FA03F303F07F4122F07F430B433A
:10366000036010BD9067000010070010DC0400101C
:103670009E67000010050010DF360000A004001057
:10368000B8040010D40400106C070010A0670000FC
:1036900020ED00E00CED00E01CED00E008B5FFF7C8
:1036A0004DFE0C4B0028186012DB00F16040FF2239
:1036B00000F5644002701A68012153119B0003F168
:1036C000604302F01F0203F5614301FA02F21A603F
:1036D00008BD00BFD00400100321FFF7DDBEFEE7E8
:1036E00000F088B908B100F085B970470449054A6F
:1036F000C1F1805303F5F8439360D160704700BF78
:1037000010100010C80000100020002104460D46D3
:10371000094801F026F801F06DFA20462946FEF727
:10372000E3FEFFF7E3FF05480021FEF773FFFEF716
:10373000EFFE01F023F80000794A0000C8000010F5
:1037400038B5044600F1080500210C22284601F096
:10375000ECFA204640F8045FFFF720F8206010B92B
:10376000024800F081F9204638BD00BFA86700007C
:103770000068FFF72FB80068FFF738B870B5044647
:10378000154604980D4E059A2660A160A38120611C
:1037900012B16261002307E000F0D6FF606110B94A
:1037A000074800F061F9012384F8483004F108006B
:1037B0002946FEF72FFF6060204670BDF8670000C5
:1037C000CD6700004068FEF743BF000010B5044617
:1037D000064B0360FFF7F6FF94F848301BB16069B1
:1037E00008B100F0AFFF204610BD00BFF867000031
:1037F00010B50446FFF7EAFF204600F098FF204688
:1038000010BDFEF73BBF000080F309887047EFF35F
:1038100009807047684680F309883F480078C007F0
:1038200014BF0220032080F314887047DFF8ECC037
:10383000EFF305831B0618BF6047EFF31483DB0724
:1038400008BF604700DF7047DFF8D4C0EFF305839F
:103850001B0618BF6047EFF31483DB0708BF604700
:1038600000DF7047EFF30980816911F8021CF1B99C
:1038700090E80F10E047EFF3098C8CE80700294B24
:1038800093E8060091420FD039B12CE9F00FC1F84E
:1038900024C00CB4FFF78AFD0CBC1A60D2F824C017
:1038A000BCE8F00F8CF309886FF0020E704710B57A
:1038B0001D4A1268914209D81C4C54F8214090E8E6
:1038C0000F10A047EFF3098C8CE80F0010BDFFF735
:1038D000FDFC144B93E80600914210D0EFF3098CE5
:1038E0002CE9F00FC1F824C00CB4FFF75FFD0CBC4D
:1038F0001A60D2F824C0BCE8F00F8CF309886FF08E
:10390000020E7047FFF734FDFFF7E3BFFFF72EFD10
:10391000FFF72EFDFFF7DDBF9C67000017310000A9
:1039200031310000D404001000000000FCFFFFFF54
:10393000438CF0B5846A9B0804EB83035A0748BFA5
:10394000043B4FF0807203E90600A3F14005A3F1A8
:103950004402A3F10C06002742F8047FB242FAD1D8
:10396000C26943F8202CC3784562012B18BF024B73
:10397000C16218BF2360F0BDA52E5AE2436A1962E6
:103980007047436A19625A6270470000034B002275
:103990001A60034A1268DA80704700BFF80F0010FF
:1039A0009867000008B5104B10485A68104B19680A
:1039B00091421FBF1A60DA8802F1FF3102681CBF12
:1039C00052189A809A8803889A420BD1084B002299
:1039D00005481A60FFF752F9BDE808400146024861
:1039E000FFF734B908BD00BFA00400100C0500109B
:1039F000F80F001000B599B072B61749684600F08C
:103A000088F806A8154900F084F80CA8144900F0BD
:103A100080F812A8134900F07CF8019A039B9620C5
:103A20001A60079A0A9B1A600D9A109B1A60139AE3
:103A3000159B1A6000F001F9019A049B96201A6008
:103A4000079A099B1A600D9A0F9B1A60139A169B8E
:103A50001A6000F0F2F8E0E732C0092034C0092013
:103A600035C0092037C009200FB407B5054B04AA9B
:103A70001B6852F8041BD868019201F029FB012051
:103A800000F07CFEB8010010094C08B5236805461B
:103A9000986800F035FF2368D86800F031FF00F027
:103AA0003BF808B100F084F80DB1FFF7A3FFFEE783
:103AB000B801001070B50E460446154600F03EF9F8
:103AC000013609D02046002100F052F9204629464F
:103AD000BDE8704000F049B970BD0322FFF7EABFAE
:103AE00070B50E460446154600F028F901360FD091
:103AF00063680DB1E26800E022692046012113608D
:103B000000F036F92046BDE87040022100F02DB9E2
:103B100070BD0022FFF7E4BF00F056B810B50446B0
:103B2000013001D110BD0C310B685A1C0BD0A342DF
:103B3000F9D12046896800F02BF92046BDE81040F5
:103B4000022100F03EB90248BDE81040FFF78CBFEB
:103B500000680000884208B50AD0431C07D0013134
:103B600006D00448FFF780FF4FF0FF3008BD08463D
:103B700008BD00BF116800000B685A1C05D08342C5
:103B800001D1486870470C31F6E7184670470000CD
:103B9000421C10B5044607D0FFF7EEFF431C044655
:103BA00002D10248FFF760FF204610BD22680000E6
:103BB00030B585B06D46182420462946ABBE044674
:103BC000204605B030BD0000024B186800F001002F
:103BD000704700BFF0ED00E038B500F097FC0F4CE7
:103BE00023681BB9BDE8384000F088BC1D6800F0B0
:103BF0006DFC281A002809DC2268D3682360084B72
:103C00001B68002BEBD090689847E8E72368D3E95E
:103C10000001BDE8384000F067BC00BF080200109A
:103C20000C02001038B5044600F050FC054600F0C8
:103C30004DFC401BA042FAD338BD4FF47A73584371
:103C4000FFF7F0BF10B50C4CA268A4681346B4F19E
:103C5000805F0CD2131F094A53F8044F42F8044FF7
:103C6000074CA242F8D1044A4FF0805393601030C1
:103C700043F8201010BD00BF00ED00E0FCFFFF0F77
:103C8000C0000010264B2022C3F8A021D3F8A021A9
:103C9000900603D5D3F8A0215106FBD50222C3F824
:103CA00004210022C3F8A8210120C3F8AC210B2273
:103CB000C3F80C01AA21C3F884205522C3F88C1044
:103CC000C3F88C20C3F88000C3F88C10C3F88C2094
:103CD000134BD3F888205201FAD50322C3F8802071
:103CE000AA22C3F88C205522C3F88C20D3F8881060
:103CF0000B4A11F0407FF9D00523C2F80831094B77
:103D0000C2F8C4300023C2F8C831136823F47043EA
:103D100023F03A0343F4405343F03A0313607047EF
:103D200000C00F40DE87280410B50446002100F0D3
:103D30002FF804F01F040120A04010BD38B505463F
:103D40004B1C0C4629600FD00846FFF7EDFF24F00E
:103D50001F0404F11803EB6004F11C032B6104F150
:103D6000140368606B61AC6038BD006800F029B86E
:103D700011B1012906D0704782684168136823EAAF
:103D8000010303E08268436811680B4313607047C6
:103D900000F16040A0F51C2000F00F030009800036
:103DA00000F1804000F5303010B55B00046803225C
:103DB0009A4024EA02020260026899400A430260C3
:103DC00010BD00F16040A0F51C2043099B0003F1E9
:103DD000804303F5303330B500F01F029C6EC1F311
:103DE000800505FA02F224EA02049C669C6E2243D6
:103DF0009A6695B900F00F030009800000F1804039
:103E000000F53030046C5B0003229A4024EA020281
:103E10000264026C99401143016430BD012810B561
:103E200002D0022811D010BD034638225143114858
:103E300042184058E8B113B992F83620CAB1BDE82B
:103E400010400D4A1946126810470A48382303FBF0
:103E500001035868013005D018699C68046093F824
:103E600036300BB10023E0E7506820F001005060CD
:103E7000DBE710BD1802001014020010034A0021F5
:103E80009068C0F34200FFF7C9BF00BF00C0004008
:103E9000034A01219068C0F34200FFF7BFBF00BF93
:103EA00000000140034A02219068C0F34200FFF77E
:103EB000B5BF00BF00800940034A03219068C0F3EA
:103EC0004200FFF7ABBF00BF00C0094070B5284BF0
:103ED00004689C4211D006DCA3F580439C4212D1B9
:103EE000244D052311E0244B9C4209D003F5804367
:103EF0009C4208D1214D082307E0214D062304E010
:103F0000204D072301E000252B4672B1626801268F
:103F100006FA01F10A4362605CB220462946FFF7C7
:103F200091FE194BA6401E6070BD01290AD045685C
:103F3000164A382606FB052292F83650303252795E
:103F4000D54213D1012202FA01F6B1FA81F1656876
:103F5000490925EA06056560006802FA01F1406832
:103F6000014202BF9A40084BC3F8802070BD00BFD9
:103F7000000001407D3E000000800940B93E000085
:103F8000913E0000A53E000000E100E01802001094
:103F90002DE9F04F03686E4A8DB0934281460E467C
:103FA00023D00FDCA2F58042934239D1694BD3F87C
:103FB000A82122F0C002C3F8A821D3F8A82142F01A
:103FC00040021DE0644A93421DD002F580429342B4
:103FD00026D1604BD3F8AC2122F44022C3F8AC21A7
:103FE000D3F8AC2142F4802218E05A4BD3F8A82130
:103FF00022F44072C3F8A821D3F8A82142F48072B9
:10400000C3F8A8210CE0534BD3F8AC2122F4403282
:10401000C3F8AC21D3F8AC2142F48032C3F8AC2110
:104020004E4B3501D3F800B0BBFBF5F305FB13B5E0
:104030001FFA83F8002D4DD04FEA4B0306934FF043
:10404000010A4FEA8B03059302935346069A0196A1
:10405000CDF80CB00496002501995FFA8AFC002780
:10406000002AF8B20790ABBF0298B2FBF1F4B0FBA4
:10407000F1F42409A8BF64090134C4F34F04002CEF
:104080004AD017B1012C98BF022407EB0A00604305
:104090000893039BC000B3FBF0F00130C6EB500067
:1040A000CDF82CC00A91099200F057FB049B099AA5
:1040B00098420A99089BDDF82CC005DAB04230D04E
:1040C0006346A046079D04900137F8B2604531442D
:1040D000C6D32AE00123D9F8001045EA03150A7B6C
:1040E000EDB242F080020A73D9F80020C8F307212C
:1040F0001171D9F800205FFA88F882F80080D9F8A9
:10410000002082F82850D9F80020137B03F07F03A9
:1041100013730DB0BDE8F08F002F14BF02240124EB
:10412000B3E76346079DA046D5E7BAF10F0FD2D09B
:10413000039905985944039106990AF1010A0A4422
:1041400002990144029101993144019184E700BF31
:104150000000014000C00F400080094050010010E5
:10416000024610B501680B7DDB07FCD50B78526861
:10417000D8B2084B382404FB02335A6801321FBFFF
:104180005A699B6813604B681CBF43F001034B6086
:1041900010BD00BF180200104268124B382101FB0D
:1041A0000233D96903F11802013109D01B6B196878
:1041B0009368194214D10368187DC0F380107047CA
:1041C00002683033127D12F0200F03D000221A71E2
:1041D0000120704718790F288CBF002001207047FC
:1041E000002070471802001038B504460D462046DE
:1041F000FFF7D2FF0028FAD02368EDB21D70626885
:10420000044B382101FB023393F83420013283F848
:10421000342038BD180200102DE9F84F9A463C4C66
:1042200003680546A34218BF0024884691464768A4
:104230001CB1237C03F03F032374364E382202FB6B
:1042400007634FF0FF31D96159606B68002102FBB1
:104250000363284683F835100A46FFF737FEB8F1A6
:10426000000F52D02C494846FFF786FC2B49834665
:104270005046FFF781FCA8F10203012B17D8BAF1D1
:10428000FF3F3FD0224B984209D144B1237C504696
:1042900043F0800323742149FFF740FC32E03820CB
:1042A00000FB076051461C30FFF717FC2AE0B8F10D
:1042B000010F2AD1B9F1FF3F27D02B6807221A72CC
:1042C000134B9B450AD14CB1237C484643F0400335
:1042D00023741149BDE8F84FFFF720BC382404FBD4
:1042E0000760494604300022FFF7FAFB6B680122A1
:1042F00004FB036686F835202846BDE8F84F002108
:10430000FFF7E4BDB8F1030FD3E7BDE8F88F00BFB6
:1043100000000140180200104468000068680000B6
:104320002DE9F04104460F46084647491646FFF777
:104330002FFC464905463046FFF72AFC0146284631
:10434000FFF708FC424B05469842206017D009D879
:10435000A3F5804398421FD13E4AD2F8C43043F0BF
:10436000080317E03C4B98420FD003F58043984276
:1043700012D1384AD2F8C43043F000730AE0354A0B
:10438000D2F8C43043F0100304E0324AD2F8C4300B
:1043900043F08073C2F8C43001232B7223684FF0BE
:1043A0000008C3F8048020464FF41651FFF7F0FDD3
:1043B000236803221A7338462349FFF7AFFB3046C0
:1043C0002249FFF7ABFB7A1C03D038464146FFF782
:1043D000F8FC731C03D030460021FFF7F2FC1C4BA5
:1043E0009D420FD005D8A3F580439D420ED10023F6
:1043F0000BE0194B9D4207D003F580439D4205D148
:10440000032302E0012300E0022363606268134B90
:10441000382101FB02334FF0FF325A60DA61204647
:1044200013460021FFF7F8FE0D4B9D4209D10D4BBD
:1044300001221A602146BDE8F0410B48082200F035
:1044400069BCBDE8F08100BFF86800008C6800001E
:104450000000014000C00F40008009401802001019
:1044600000C00040100200100010001008B5114BF1
:104470001868E8B9104A01211960D2F8C43043F431
:104480000003C2F8C430A2F5D0220C4B10671B68A1
:10449000022050600A489B08B3FBF0F3013BD36055
:1044A000042051600749FFF7CDFB074B10221A602B
:1044B00008BD00BFF802001000C00F4050010010FE
:1044C00040420F00D93B000000E100E008B5044B7A
:1044D0001B680BB9FFF7CAFF024B986808BD00BF05
:1044E000F802001000400940034B98615A6942F0FD
:1044F00001025A61704700BF00400940024A5369F7
:1045000023F001035361704700400940014B012231
:104510001A607047004009400022426082610160D9
:1045200070470368014603B11847406810B18B69B2
:104530000831184770470000044B1B6823B9044832
:104540000449054AFFF7ECBE704700BF1002001097
:104550000010001002C0092003C0092002284FF0FB
:10456000000309DD0749C21E51F8220041F822303C
:1045700020B103685B681847184670474FF0FF305A
:10458000704700BFFC020010022870B50C461546AB
:104590000FDC0E4B1B680BB9FFF7CEFF6619B44258
:1045A00005D00B4814F8011BFFF71EFEF7E728465D
:1045B00070BD084B033853F8200020B1BDE87040AF
:1045C00003681B6818474FF0FF3070BD10020010E1
:1045D00000100010FC020010022810B50C460ADC86
:1045E0000B4B1B680BB9FFF7A7FF0A48FFF7B8FD95
:1045F0002070012010BD084B033853F8200020B173
:10460000BDE8104003689B6818474FF0FF3010BDAD
:104610001002001000100010FC020010022807DD3C
:10462000064B033853F8200020B10368DB681847B5
:10463000012070474FF0FF30704700BFFC020010B0
:10464000022807DD064B033853F8200020B1036829
:104650001B691847002070474FF0FF30704700BFBC
:10466000FC020010022808B504D84FF400534B6038
:10467000002008BD00F07CF8092303604FF0FF30F4
:1046800008BD08B5012000F079F87047704708B5FB
:10469000FFF7FCFFFFF7F9FFBDE80840FBF7CCBDD3
:1046A000074A13681844EFF30881884223BF054B7B
:1046B0000C224FF0FF3010602CBF1A601846704774
:1046C00054010010081000100649074A074B9A428F
:1046D000BEBF51F8040B42F8040BF8E704488047CA
:1046E00004480047A4700000C8000010C801001072
:1046F000853C000029010000FEE7FEE7FEE7FEE73B
:10470000FEE7FEE7FEE7FEE7FEE7FEE710B500285E
:1047100014BF04460124204600F0DEFA30B900F050
:1047200009F808B900F012F88047F4E710BD00F06E
:10473000DBBA0000024B1868BFF35F8F704700BF01
:10474000FC030010FFF7F3BFFFF7E0BF08B506203A
:1047500000F016FF0120FFF797F90028B8BF40428C
:104760007047014600200246034601F02BBA0000C4
:10477000014B1868704700BFB801001008B5074B1F
:10478000044613B1002101F079FA054B1868836AD9
:1047900003B198472046FFF777F900BF7D5C000022
:1047A000C86900008A892DE9F041054610070C46CA
:1047B00057D44B68002B02DC0B6C002B18DDE66A2B
:1047C000B6B102F48052002392B22F682B600AB176
:1047D000626D10E0216A28460123B047411C024661
:1047E00009D12B683BB11D2B01D0162B46D12F6070
:1047F0000020BDE8F081A3895B0705D56368D21A64
:10480000636B0BB1236CD21AE66A00232846216A37
:10481000B047461CA38905D12A681AB11D2A01D0C8
:10482000162A19D1002262602269D904226004D5B7
:10483000421C01D12B6803B96065616B2F600029B0
:10484000D6D004F14403994202D0284600F076FA0B
:1048500000206063BDE8F08143F04003A381BDE820
:10486000F0810F69002FC3D093070E680CBF4B690E
:104870000023C7EB06080F608B6012E0A3894FF09E
:10488000FF3043F04003A381BDE8F0812846216A50
:104890003A464346A66AB0470028EFDD0744C0EB1E
:1048A0000808B8F1000FF1DCA2E7000038B50B6989
:1048B00005460C46DBB118B183690BB900F072F8FC
:1048C0000C4B9C4201D16C6808E00B4B9C4201D11F
:1048D000AC6803E0094B9C4208BFEC68B4F90C30AB
:1048E0002BB128462146BDE83840FFF75BBF0020CA
:1048F00038BD00BF6469000084690000A46900003D
:10490000014620B9044B0549186800F055B9044B1D
:104910001868FFF7CBBF00BFC8690000AD480000B2
:10492000B8010010014900F047B900BFAD480000D0
:1049300010B50446002303604360836081814366B1
:10494000C28103614361836119465C30082200F033
:10495000ECF9054B24626362044BA362044BE362EF
:10496000044B236310BD00BFB9550000DB550000A8
:10497000135600003756000070B568234D1E5D4386
:104980000E4605F1740100F01DFA044640B1002105
:1049900080E842000C30A06005F1680200F0C5F923
:1049A000204670BD836910B5044633BB8364C3647D
:1049B0000365124B124A1B688262984204BF0123AE
:1049C000836100F01FF86060204600F01BF8A060D3
:1049D000204600F017F80421E06000226068FFF72D
:1049E000A7FFA06809210122FFF7A2FFE0681221BA
:1049F0000222FFF79DFF0123A36110BDC8690000DB
:104A000025490000F8B51B4B07461E68B36913B96A
:104A10003046FFF7C7FF4836B4687368013B04D4DB
:104A2000B4F90C5075B16834F8E733682BB93846DF
:104A30000421FFF7A1FF306008B13668ECE70C23D2
:104A40003B60F8BD4FF6FF73E3810123A3816566E8
:104A50002560A560656025616561A56104F15C0064
:104A60002946082200F061F96563A563A564E56441
:104A70002046F8BDC869000038B5074B074C1D46F5
:104A8000E41AA41024B1013C55F824309847F9E702
:104A9000BDE8384001F0C8B9C4010010C8010010D9
:104AA00070B50E461446054618B183690BB9FFF779
:104AB00079FF0A4B9C4201D16C6808E0084B9C428C
:104AC00001D1AC6803E0074B9C4208BFEC68284664
:104AD00031462246BDE8704000F0DEBC646900004B
:104AE00084690000A469000003460A460249086878
:104AF0001946FFF7D5BF00BFB801001070B50D46CD
:104B00001446064618B183690BB9FFF74BFF224BD9
:104B10009C4201D1746808E0204B9C4201D1B468EA
:104B200003E01F4B9C4208BFF468A3891A0701D514
:104B300023699BB93046214600F0D8FF70B14FF091
:104B4000FF3070BDA368013B002BA3600BDB236823
:104B500015F8012C1A7023680133236015F8010B36
:104B60000028EFD116E0A269934209DB236815F80B
:104B7000012C1A70236819780A29EDD1304602E019
:104B8000304615F8011C224600F04AFF431C5842EB
:104B90005841D3E770BD00BF64690000846900001C
:104BA000A469000003460A46024908681946FFF74F
:104BB000A5BF00BFB80100102DE9F8438046894623
:104BC00000F14804002694B1A5686768013F0CD441
:104BD000AB89012B07D9B5F90E30013303D040461C
:104BE0002946C84706436835F0E72468EBE73046B6
:104BF000BDE8F8830E4B70B51E460E4C0025E41A36
:104C0000A410A54204D056F8253098470135F8E79E
:104C100001F004F9084B094C1E46E41AA4100025C3
:104C2000A54204D056F8253098470135F8E770BD05
:104C3000BC010010BC010010BC010010C401001038
:104C4000F0B58B8991B09D0706460C4625D4B1F985
:104C50000E10002908DAA389002513F0800F14BF75
:104C600040274FF480670DE001AA01F081F8002889
:104C7000F1DB029D4FF4806705F47045A5F5005106
:104C80004D424D413046394600F09CF860B9A38949
:104C90009A051DD443F00203A38104F14703236066
:104CA00023610123636113E00A4BB362A38920608F
:104CB00043F08003A381206167614DB13046B4F9B0
:104CC0000E1001F067F818B1A38943F00103A38126
:104CD00011B0F0BD25490000024B0146186800F0F4
:104CE00071B800BFB8010010024B0146186800F00F
:104CF00025B800BFB801001010B5C9B202449042F7
:104D0000034605D01C7801308C42F8D1184610BDFE
:104D1000002010BD10B5431E0A44914204D011F882
:104D2000014B03F8014FF8E710BD034602449342DC
:104D300002D003F8011BFAE77047000030B50029E4
:104D40003CD051F8042C0B1F1D49002AB8BF9B18FA
:104D50000A680C4612B95A600B6030BD93420DD2FE
:104D600019685818904201BF5A5852181A60426880
:104D700023605A6030BD994203D80A465168002921
:104D8000F9D1146815199D420AD11B682344D01823
:104D90008842136012D10868034413604B680CE02A
:104DA00002D90C23036030BD1C681819884201BF6A
:104DB00008684968001918605960536030BD00BF29
:104DC0000404001070B5CC1C24F0030408340C2C2F
:104DD00038BF0C24002C064603DA0C233360002075
:104DE00070BD8C42F9D3204A136810461946A1B110
:104DF0000A68121B0ED40B2A03D90A608B188C5038
:104E00001FE08B420BBF5A684A6802605A6018BFA5
:104E10000B4616E00B464968E9E7144D2B681BB9B1
:104E2000304600F075FB28603046214600F070FBEC
:104E3000421C0346D1D0C51C25F0030585420AD18A
:104E40001C6003F10B001A1D20F00700821A0AD023
:104E50005142995070BD3046E91A00F059FB0130BB
:104E6000BBD02B46ECE770BD04040010000400101A
:104E7000936810B5013B002B936009DA9469A34253
:104E800002DBCBB20A2B03D1BDE8104000F0C8BD55
:104E90001368581C10601970C8B210BDF8B50646EA
:104EA0000F461446D518AC4208D0304614F8011B02
:104EB0003A46FFF7DDFF431CF5D100E00020F8BDC6
:104EC0002DE9F0439DB00D4690460393064618B178
:104ED00083690BB9FFF766FD754B9D4201D175687B
:104EE00008E0744B9D4201D1B56803E0724B9D42CE
:104EF00008BFF568AB891C070AD52B6943B10023AD
:104F0000099320238DF8293030238DF82A3041E091
:104F10003046294600F0EAFD0028F0D04FF0FF307F
:104F2000C2E0039A0134111D12680391002ABBBF2D
:104F3000524243F0020307920792B8BF04932378CA
:104F40002E2B7BD0DFF88081217840460322FFF7AB
:104F5000D3FE38B1049AC8EB0000402383401343CA
:104F60000493013421785548062204F101088DF894
:104F70002810FFF7C1FE002800F08580504B002B61
:104F800078D1039B073323F0070308330393099B6E
:104F90003B44099343461C4613F8012B1AB9B4EB62
:104FA00008090ED002E0252AF5D1F8E73046294657
:104FB00042464B46FFF772FF013070D0099B4B44CD
:104FC00009932378002B6AD000234FF0FF3204931B
:104FD0000793059206938DF853301A9304F1010854
:104FE0004446DFF8E890217848460522FFF784FE22
:104FF00008F10108049B30B1C9EB00000122824096
:1050000013430493ECE7D80644BF20228DF85320C5
:10501000190744BF2B228DF8532022782A2A80D0EA
:10502000234607991C4622780133303A092A03D8CF
:105030000A2000FB0121F5E7079180E763782A2B1E
:105040000AD1039B02341A1D1B680392002BB8BFC0
:105050004FF0FF33059375E7611C00220C4623785F
:105060000131303B092B03D80A2000FB0232F5E75F
:10507000059267E703AB0093304604A92A46114B1B
:10508000AFF3008007E003AB0093304604A92A4643
:105090000C4B00F0A1F8421C07467FF478AFAB89B7
:1050A0005B063FF53BAF09981DB0BDE8F08300BF3C
:1050B0006469000084690000A4690000D6690000EA
:1050C000000000009D4E0000D2690000CC69000085
:1050D00030B505460C461346034A29461068224659
:1050E000BDE83040FFF7ECBEB80100102DE9F843F1
:1050F00091461F468A680B6906469342B8BF13461D
:10510000C9F8003091F843200C46DDF8208012B138
:105110000133C9F800302368990642BFD9F800303E
:105120000233C9F80030256815F006051CD094F844
:1051300043302268003318BF012392061FD5E118BF
:10514000302081F843005A1C94F845102244023361
:1051500082F8431013E03046394604F11902012366
:10516000C047013007D00135E368D9F800209B1A09
:105170009D42F0DBDBE74FF0FF30BDE8F8833046BF
:10518000394604F14302C0470130F4D02268D9F80F
:105190000050E36802F00602042A08BF5D1B226982
:1051A000A3680CBF25EAE57500259342C4BF9B1A8E
:1051B000ED184FF00009A9450ADA3046394604F1E6
:1051C0001A020123C0470130D5D009F10109F2E7E5
:1051D0000020BDE8F88300002DE9FF410C4617468A
:1051E000227E98466E2A06460A9B01F1430100F092
:1051F000AA8012D8632A23D00AD8002A00F0B780E8
:10520000582A40F0C68084F84520DFF8F8E151E0E4
:10521000642A1ED0692A1CD0BBE0732A00F0AB8040
:1052200009D86F2A2BD0702A40F0B380226842F050
:105230002002226039E0752A21D0782A35D0A8E0F2
:105240001A6804F14205111D1960136884F8423090
:10525000A3E020681A6810F0800F03D0101D1860BA
:10526000136805E04506F9D5101D1860B2F9003045
:10527000002B3BDA2D225B4284F8432036E0206885
:105280001A6810F0800F03D0101D1860136804E036
:105290004006F9D5101D18601388227EDFF864E1FE
:1052A0006F2A0CBF08220A221CE07822DFF858E19E
:1052B00084F845202268186812F0800F00F1040578
:1052C0001D6001D0036802E05506FBD50388D007B6
:1052D00044BF42F0200222601BB9226822F0200263
:1052E00022601022002084F8430002E0DFF814E17D
:1052F0000A226568002DA8BF2068A560A4BF20F021
:105300000400206003B965B10D46B3FBF2F002FB67
:1053100010331EF8033005F8013D03460028F4D190
:1053200000E00D46082A0BD12368DA0708D5236967
:1053300062689A42DEBF302305F8013C05F1FF3573
:10534000491B21612EE025681A6815F0800F6069FD
:1053500003D0151D1D60136808E015F0400F02F121
:1053600004051D60136801D0188000E01860002358
:1053700023610D4616E01A68111D19601568002199
:1053800028466268FFF7B8FC08B1401B606063689C
:1053900004E004F1420584F8422001232361002344
:1053A00084F84330CDF800803046214603AA3B46BE
:1053B000FFF79CFE013002D14FF0FF301FE0304676
:1053C00039462A462369C0470130F5D023689B0738
:1053D00005D4E068039B9842B8BF18460FE000254B
:1053E000E368039A9B1A9D42F3DA3046394604F18A
:1053F00019020123C0470130DED00135F0E704B0C7
:10540000BDE8F081DD690000EE69000037B50D46AA
:10541000044618B183690BB9FFF7C4FA4DB12B7874
:105420003BB1E1682846FFF7BDFB0A48E168FFF79A
:10543000B9FB20462168012201AB00F009F910B147
:10544000E168FFF7AFFBE1680A20FFF74DFB03B00F
:1054500030BD00BFFF690000024B01461868FFF72E
:10546000D5BF00BFB80100100FB40A4B13B51C68BC
:1054700024B1A36913B92046FFF794FA05AB20467F
:10548000A168049A0193FFF71BFD02B0BDE810402C
:1054900004B07047B801001070B50E4614460546BA
:1054A00018B183690BB9FFF77DFA164B9C4201D105
:1054B0006C6808E0144B9C4201D1AC6803E0134BCC
:1054C0009C4208BFEC68A368013B002BA36011DA83
:1054D000A269934207DB23681E70236819780A29A2
:1054E0000BD1284601E0284631462246BDE87040EF
:1054F00000F096BA23681E7023685A1C2260187840
:1055000070BD00BF6469000084690000A4690000E8
:1055100038B5064C0023054608462360FFF7C0F85F
:10552000431C02D1236803B12B6038BD0810001062
:105530001F2938B504460D4604D9162303604FF0E1
:10554000FF3038BD426C12B152F821304BB92046C1
:1055500000F030F82A4601462046BDE8384000F009
:1055600017B8012B0AD0591C03D116230360012060
:1055700038BD002442F8254028469847002038BD11
:10558000024B01461868FFF7D3BF00BFB8010010F7
:1055900038B5074C0023054608461146236000F045
:1055A00035FC431C02D1236803B12B6038BD00BF1A
:1055B0000810001000F022BC10B50C46B1F90E1016
:1055C00000F00AFC0028ABBF636DA3891B1823F40D
:1055D0008053ACBF6365A38110BD2DE9F0411D462A
:1055E0008B890746DB050C46164605D5B1F90E102A
:1055F0000022022300F0DEFBA389384623F4805307
:10560000A381B4F90E1032462B46BDE8F04100F0FC
:105610005BBA10B50C46B1F90E1000F0CBFB431C81
:10562000A38915BF606523F4805343F48053A3819D
:1056300018BFA38110BDB1F90E1000F089BB03465D
:1056400011F8012B03F8012B002AF9D17047000053
:1056500010B5044608468E2800F22F81DFE810F0CE
:1056600039018F00910093009500970099009B00ED
:105670009D00A100A300A700A900AB00AD002D0173
:10568000AF00B100B300B500B700BD00BF00C5005A
:10569000C700C900CB00CD00D100D500D700D9008C
:1056A000DB00DD00DF00E100E3002D012D012D0115
:1056B0002D012D012D012D012D01E700EB002D0104
:1056C0002D012D012D012D012D012D012D012D016A
:1056D0002D012D012D012D01ED000701EF00F1003D
:1056E0002D012D012D01F3002D012D012D01F500BE
:1056F0002D012D01F9002D012D01FB002D012D01A2
:105700002D012D012D012D012D012D012D012D0129
:10571000FD002D01FF00010103012D012D012501D7
:105720002D012D012D012D012D012D012D012D0109
:105730001301050109010B010D010F012D011101DB
:1057400015011901E900C1002B01B900CF00BB0010
:105750009F00A5002901F7002D011701C3001D01BD
:105760001B012D012D012D012D012D01D3002D0136
:105770002D012D01E50027011F01210123015648BC
:1057800010BD564810BD564810BD564810BD56486D
:1057900010BD564810BD564810BD564810BD56485D
:1057A00010BD564810BD564810BD564810BD56484D
:1057B00010BD564810BD564810BD564810BD56483D
:1057C00010BD564810BD564810BD564810BD56482D
:1057D00010BD564810BD564810BD564810BD56481D
:1057E00010BD564810BD564810BD564810BD56480D
:1057F00010BD564810BD564810BD564810BD5648FD
:1058000010BD564810BD564810BD564810BD5648EC
:1058100010BD564810BD564810BD564810BD5648DC
:1058200010BD564810BD564810BD564810BD5648CC
:1058300010BD564810BD564810BD564810BD5648BC
:1058400010BD564810BD564810BD564810BD5648AC
:1058500010BD564810BD564810BD564810BD56489C
:1058600010BD564810BD564810BD564810BD56488C
:1058700010BD564810BD564810BD564810BD56487C
:1058800010BD564810BD564810BD564810BD56486C
:1058900010BD564810BD564810BD564810BD56485C
:1058A00010BD564810BD564810BD564810BD56484C
:1058B00010BD564810BD564810BD1146002B14BFF0
:1058C0001A46224600F0AAF8524B002808BF184694
:1058D00010BD514810BD00BF0A6A0000146A0000E4
:1058E0002E6A00003E6A0000566A0000606A0000EE
:1058F0007A6A00008C6A00009E6A0000B76A0000A5
:10590000C76A0000D36A0000F06A0000026B000062
:10591000136B0000256B0000316B0000496B000029
:10592000556B0000676B0000766B0000866B000013
:10593000936B0000B26B0000C16B0000D26B0000E3
:10594000F66B0000146C0000326C0000526C00001A
:10595000696C0000786C0000876C00009B6C000094
:10596000B36C0000C16C0000CE6C0000E46C000061
:10597000F36C0000FF6C00002E6D00003F6D000016
:105980005A6D00006D6D0000836D00008C6D00008D
:10599000A36D0000AB6D0000B86D0000CD6D000080
:1059A000E16D0000F96D0000086E0000196E000046
:1059B0002C6E0000386E0000516E0000656E000015
:1059C000806E0000986E0000B26E0000BA6E00009B
:1059D000EA6E0000096F0000286F00003F6F0000B2
:1059E000526F00006B6F0000826F0000986F000024
:1059F000B96F0000D16F0000ED6F00000070000073
:105A0000167000002A7000004C70000072700000D8
:105A1000837000007B610000026A00000020704774
:105A200070B50D461446064618B183690BB9FEF7EA
:105A3000B9FF224B9C4201D1746808E0204B9C4284
:105A400001D1B46803E01F4B9C4208BFF468A3690E
:105A5000A360A3891A0709D523693BB1236820698C
:105A6000EDB2181A636998420FDB08E03046214610
:105A700000F03CF80028F1D04FF0FF3070BD304608
:105A80002146FEF713FF0028F6D1A3680130013B41
:105A9000A36023685A1C22601D706369984204D079
:105AA000A389DB0707D50A2D05D130462146FEF72D
:105AB000FDFE0028E0D1284670BD00BF64690000EB
:105AC00084690000A469000038B5074C0546002031
:105AD0002060084611461A46FEF756FD431C02D1C7
